:020000040000fa
:080000000002040000000000f2
:020000040000fa
:0400080024040000cc
:020000040000fa
:04000c0036040000b6
:020000040000fa
:0400100046040000a2
:020000040000fa
:040014002c040000b8
:020000040000fa
:040018003e040000a2
:020000040000fa
:04001c002a050000b1
:020000040000fa
:040020004e0400008a
:020000040000fa
:040024002a050000a9
:020000040000fa
:040028002a050000a5
:020000040000fa
:04002c00fa030000d3
:020000040000fa
:040030002a0500009d
:020000040000fa
:040034002a05000099
:020000040000fa
:040038002a05000095
:020000040000fa
:04003c002a05000091
:020000040000fa
:040040002a0500008d
:020000040000fa
:040044002a05000089
:020000040000fa
:040048002a05000085
:020000040000fa
:04004c002a05000081
:020000040000fa
:040050002a0500007d
:020000040000fa
:04005400c6040000de
:020000040000fa
:040058007a04000026
:020000040000fa
:04005c002a05000071
:020000040000fa
:040060002a0500006d
:020000040000fa
:040064002a05000069
:020000040000fa
:040068002a05000065
:020000040000fa
:04006c002a05000061
:020000040000fa
:040070002a0500005d
:020000040000fa
:040074002a05000059
:020000040000fa
:040078002a05000055
:020000040000fa
:04007c002a05000051
:020000040000fa
:040080002a0500004d
:020000040000fa
:040084002a05000049
:020000040000fa
:040088002a05000045
:020000040000fa
:04008c002a05000041
:020000040000fa
:040090002a0500003d
:020000040000fa
:040094002a05000039
:020000040000fa
:040098002a05000035
:020000040000fa
:04009c002a05000031
:020000040000fa
:0400a0002a0500002d
:020000040000fa
:0400a4002a05000029
:020000040000fa
:0400a8002a05000025
:020000040000fa
:0400ac002a05000021
:020000040000fa
:0400b0002a0500001d
:020000040000fa
:0400b4002a05000019
:020000040000fa
:0400b8002a05000015
:020000040000fa
:0400bc002a05000011
:020000040000fa
:0400c0002a0500000d
:020000040000fa
:0400c4002a05000009
:020000040000fa
:0400c8002a05000005
:020000040000fa
:0400cc002a05000001
:020000040000fa
:0400d0002a050000fd
:020000040000fa
:0400d4002a050000f9
:020000040000fa
:0400d8002a050000f5
:020000040000fa
:0400dc002a050000f1
:020000040000fa
:0400e0002a050000ed
:020000040000fa
:0400e4002a050000e9
:020000040000fa
:0400e8002a050000e5
:020000040000fa
:0400ec001c050000ef
:020000040000fa
:0400f0002a050000dd
:020000040000fa
:0400f4002a050000d9
:020000040000fa
:0400f8002a050000d5
:020000040000fa
:0400fc002a050000d1
:020000040000fa
:040100002a050000cc
:020000040000fa
:040104002a050000c8
:020000040000fa
:040108002a050000c4
:020000040000fa
:04010c002a050000c0
:020000040000fa
:040110002a050000bc
:020000040000fa
:040114002a050000b8
:020000040000fa
:040118002a050000b4
:020000040000fa
:04011c002a050000b0
:020000040000fa
:040120002a050000ac
:020000040000fa
:040124002a050000a8
:020000040000fa
:040128002a050000a4
:020000040000fa
:04012c002a050000a0
:020000040000fa
:040130002a0500009c
:020000040000fa
:040134002a05000098
:020000040000fa
:040138002a05000094
:020000040000fa
:04013c002a05000090
:020000040000fa
:040140002a0500008c
:020000040000fa
:040144002a05000088
:020000040000fa
:040148002a05000084
:020000040000fa
:04014c002a05000080
:020000040000fa
:040150002a0500007c
:020000040000fa
:040154002a05000078
:020000040000fa
:040158002a05000074
:020000040000fa
:04015c002a05000070
:020000040000fa
:040160002a0500006c
:020000040000fa
:040164002a05000068
:020000040000fa
:040168002a05000064
:020000040000fa
:04016c002a05000060
:020000040000fa
:040170002a0500005c
:020000040000fa
:040174002a05000058
:020000040000fa
:040178002a05000054
:020000040000fa
:04017c002a05000050
:020000040000fa
:040180002a0500004c
:020000040000fa
:040184002a05000048
:020000040000fa
:040188002a05000044
:020000040000fa
:04018c002a05000040
:020000040000fa
:040190002a0500003c
:020000040000fa
:04019400260300003e
:020000040000fa
:040198002a05000034
:020000040000fa
:04019c002a05000030
:020000040000fa
:0401a0002a0500002c
:020000040000fa
:0401a4002a05000028
:020000040000fa
:0401a8002a05000024
:020000040000fa
:0401ac002a05000020
:020000040000fa
:0401b0002a0500001c
:020000040000fa
:0401b4002a05000018
:020000040000fa
:0401b8002a05000014
:020000040000fa
:0401bc002a05000010
:020000040000fa
:0401c0002a0500000c
:020000040000fa
:0401c4002a05000008
:020000040000fa
:0401c8002a05000004
:020000040000fa
:0401cc002a05000000
:020000040000fa
:0401d0002a050000fc
:020000040000fa
:0401d4002a050000f8
:020000040000fa
:0401d8002a050000f4
:020000040000fa
:0401dc002a050000f0
:020000040000fa
:0401e0002a050000ec
:020000040000fa
:0401e4002a050000e8
:020000040000fa
:0401e8002a050000e4
:020000040000fa
:0401ec002a050000e0
:020000040000fa
:0401f0002a050000dc
:020000040000fa
:0401f4002a050000d8
:020000040000fa
:0401f8002a050000d4
:020000040000fa
:0401fc002a050000d0
:020000040000fa
:040200002a050000cb
:020000040000fa
:040204002a050000c7
:020000040000fa
:040208002a050000c3
:020000040000fa
:04020c002a050000bf
:020000040000fa
:040210002a050000bb
:020000040000fa
:040214002a050000b7
:020000040000fa
:040218002a050000b3
:020000040000fa
:04021c002a050000af
:020000040000fa
:040220002a050000ab
:020000040000fa
:040224002a050000a7
:020000040000fa
:040228002a050000a3
:020000040000fa
:04022c002a0500009f
:020000040000fa
:040230002a0500009b
:020000040000fa
:040234002a05000097
:020000040000fa
:040238002a05000093
:020000040000fa
:04023c002a0500008f
:020000040000fa
:040240002a0500008b
:020000040000fa
:040244002a05000087
:020000040000fa
:040248002a05000083
:020000040000fa
:04024c002a0500007f
:020000040000fa
:040250002a0500007b
:020000040000fa
:040254002a05000077
:020000040000fa
:040258002a05000073
:020000040000fa
:04025c002a0500006f
:020000040000fa
:040260002a0500006b
:020000040000fa
:040264002a05000067
:020000040000fa
:040268002a05000063
:020000040000fa
:04026c002a0500005f
:020000040000fa
:040270002a0500005b
:020000040000fa
:040274002a05000057
:020000040000fa
:040278002a05000053
:020000040000fa
:04027c002a0500004f
:020000040000fa
:040280002a0500004b
:020000040000fa
:040284002a05000047
:020000040000fa
:040288002a05000043
:020000040000fa
:04028c002a0500003f
:020000040000fa
:040290002a0500003b
:020000040000fa
:040294002a05000037
:020000040000fa
:040298002a05000033
:020000040000fa
:04029c002a0500002f
:020000040000fa
:0402a0002a0500002b
:020000040000fa
:0402a4002a05000027
:020000040000fa
:0402a8002a05000023
:020000040000fa
:0402ac002a0500001f
:020000040000fa
:0402b0002a0500001b
:020000040000fa
:0402b4002a05000017
:020000040000fa
:0402b8002a05000013
:020000040000fa
:0402bc002a0500000f
:020000040000fa
:0402c0002a0500000b
:020000040000fa
:0402c4002a05000007
:020000040000fa
:0402c8002a05000003
:020000040000fa
:0402cc002a050000ff
:020000040000fa
:0402d0002a050000fb
:020000040000fa
:0402d4002a050000f7
:020000040000fa
:0402d8002a050000f3
:020000040000fa
:0402dc002a050000ef
:020000040000fa
:0402e0002a050000eb
:020000040000fa
:0402e4002a050000e7
:020000040000fa
:0402e8002a050000e3
:020000040000fa
:0402ec002a050000df
:020000040000fa
:0402f0002a050000db
:020000040000fa
:0402f4002a050000d7
:020000040000fa
:0402f8002a050000d3
:020000040000fa
:0402fc002a050000cf
:020000040000fa
:040300002a050000ca
:020000040000fa
:040304002a050000c6
:020000040000fa
:040308002a050000c2
:020000040000fa
:04030c002a050000be
:020000040000fa
:040310002a050000ba
:020000040000fa
:040314002a050000b6
:020000040000fa
:040318002a050000b2
:020000040000fa
:04031c0026050000b2
:020000040000fa
:040320002a050000aa
:020000040000fa
:040324002a050000a6
:020000040000fa
:040328002a050000a2
:020000040000fa
:04032c002a0500009e
:020000040000fa
:040330002a0500009a
:020000040000fa
:040334002a05000096
:020000040000fa
:10040000ef252100eefc26000e0188000000000010
:10041000000020000000e000020032000001200087
:1004200020028800140007008c0107000000e00093
:1004300003003a004049210001002000020037007b
:100440000000200001002000810f70000100320038
:100450000f000700000020000000e0000200320052
:1004600000000200000000009c1b020000000000d1
:100470000040da000000fe00200020000000e00044
:1004800002003200100020009001880000000600e9
:10049000a1028800800478000000eb001f003700f4
:1004a000e284440054a0b4009905ba00e2844400f8
:1004b00054a0b4009906ba00e284440054a0b400e9
:1004c0000006eb00476fde00fd07b200ae018800ba
:1004d000636ce10003003a000ad801000000eb0061
:1004e0000e003700606ce10008003a00004deb00a0
:1004f0000a05e800020039003420ec000af0a000f0
:100500008b05e900f9ff3e00040037006168e10057
:10051000010032000086eb000b00070019c7ba008b
:100520001905ba000e04e00003003a000a00e000da
:10053000dbff3a0000000600fe07b200ae028800b2
:100540008a047800f5ff37000cd0a300e20f4d00bd
:100550001c00390089027800354dba000a05e80010
:10056000020039003420ec000af0a0008b05e900fd
:100570000f003200254dba000a05e80002003900dc
:100580003420ec000af0a0008b05e90008003200de
:100590000c00e0000600320015cdba000a05e800a4
:1005a000020039003420ec000af0a0008b05e900bd
:1005b0008984e80054a0b4000b00e000e2ff3a0098
:1005c000000006009902ba00055d78008b05e9007d
:1005d000f7ff3200c82ade00055d78008b05e900d0
:1005e000f3ff32000c00e000f1ff320019ddba0029
:1005f000eeff37006c0d0400000000006e0d0400db
:1006000000000000700d040000000000720d0400e6
:1006100000000000740d040000000000760d0400ce
:1006200000000000780d0400000000007a0d0400b6
:1006300000000000a41a040000000000aa08040042
:1006400000000000ac080400000000003600f800c4
:10065000809fbe00829fbe00849fbe00869fbe001a
:100660003200f8003400f80010002000a0018800db
:1006700010002000900188005acea8006060800021
:10068000f091880070608000e0918800c082800056
:100690008000e800c18288000000e0000200320013
:1006a000260207005830ef0040588000f003b200e7
:1006b000ea0f50001900320003003c00e60f500022
:1006c00026003a001d003700ef0f500003003200f3
:1006d000f10f500021003a0008003700300be20013
:1006e00021003d0050618000109288001001200020
:1006f00050200a00080b00001b003700322bab0013
:10070000190032007061800000928800a000200073
:1007100050200a00080b000013003700314bab00db
:100720001100320000618000d0918800600020003c
:1007300050200a00080b00000b00370030cbab0044
:1007400009003200c060800020928800f000200084
:1007500050200a00080b000003003700f0002000c2
:1007600050200a00080b00000b68a9005acea9000f
:100770003400f9003200f9004f03be004f02be0002
:100780004f01be004f00be003600f90000400600d9
:100790003600f800809fbe00829fbe00849fbe008e
:1007a000869fbe003200f8003400f80010002000e0
:1007b000a001880010002000900188006060800087
:1007c000118080000100e000010032000100010002
:1007d0000b68a9003400f9003200f9004f03be0095
:1007e0004f02be004f01be004f00be003600f900b0
:1007f000004006003600f800809fbe00829fbe00c9
:10080000849fbe00869fbe00d08280000000e00072
:100810000100320000000100d02521001048e8004e
:1008200011c0b3000000e900014878000028a900c9
:100830004f03be004f02be004f01be004f00be007e
:100840003600f900004006003600f800c028a90074
:100850000000eb00c60b07003600f800bf0b0700d6
:10086000c048a90010002000c10b07003600f800a6
:10087000c068a90020002000bd0b07003600f8006a
:10088000c088a90030002000b90b07003600f8002e
:10089000c608a90070002000b50b07003600f8005c
:1008a000c508ab0003003200c508a900c000200045
:1008b000af0b0700c408e20003003d00c5e8a90033
:1008c00080002000aa0b0700c488ab0003003200a0
:1008d000c488a900a0002000a50b0700c408ab0035
:1008e00003003200c408a900b0002000a00b0700dc
:1008f000ffff37003600f800809fbe00829fbe00d9
:10090000849fbe00869fbe00808080000000e000c3
:100910000100320000000100d2808000c080800011
:10092000820f500002003a002188a9001100370010
:100930000188a90093232100698251000b00370030
:10094000c0808000b080fb0041128800c080880019
:10095000c0808000830f500001003a00c4808800ee
:10096000c0808000820f5000020032003e82ab0047
:10097000f3ff32004f03be004f02be004f01be0026
:100980004f00be003600f900004006003600f800b7
:10099000809fbe00829fbe00849fbe00869fbe00d7
:1009a000a3808000f222210014c0b300eb025100aa
:1009b00014003700b08080002112800001487800c8
:1009c000b0808000820f5000050032001610ec004d
:1009d000808f5100020032001630ec000900370011
:1009e000b1808000828f500004003a00858f510052
:1009f00002003200b580880002003700c0012100eb
:100a0000044878003e22ab00eaff3200908080006c
:100a10000000e00001003200000001000168a900b0
:100a20004f03be004f02be004f01be004f00be008c
:100a30003600f900004006003c22ab000100320005
:100a40003c22a9000628a9000040060017a8a9001a
:100a5000004006000040da000000fe000000050033
:020000040000fa
:100a6000e10f500003003200e20f500004003a0092
:100a7000020037002be3a8000100370061e3a80063
:100a800000000600e10f500003003200e20f5000aa
:100a900004003a00020037002be3a90001003700f0
:100aa00061e3a90000000600e10f500003003200de
:100ab000e20f500004003a0002003700711a88006b
:100ac00001003700211c880000000600e10f5000e3
:100ad00003003200e20f500004003a000200370029
:100ae00031a3a8000100370067a3a800000006009a
:100af000e10f500003003200e20f500004003a0002
:100b0000020037003183a800010037006783a80086
:100b100000000600e10f500003003200e20f500019
:100b200004003a000200370031a3a9000100370099
:100b300067a3a90000000600e10f50000300320087
:100b4000e20f500004003a00020037003183a90090
:100b5000010037006783a90000000600e10f500084
:100b600003003200e20f500004003a000200370098
:100b7000a11a880001003700511c880000000600ff
:100b8000901a800052662e000010b8008181880003
:100b9000941a8000b11e2100040ab80005007800f4
:100ba0005c03b4008001780093818800901a800073
:100bb0000011b80073818800921a80000209b80001
:100bc000030078009203b4008000780061818800ff
:100bd0008040eb00a0252100014878000000e800db
:100be000014878001044a0001004a000e7060700a8
:100bf00007070700270707006863a9006843a900e3
:100c00002c10f8008403f9002000200094ff070056
:100c10006863a8006843a8003263a9003243a900b2
:100c20003210f8004e03f900100020008cff07007e
:100c30003263a8003243a8009c07070000000600aa
:100c4000100020008fff0700200020008dff07000c
:100c500040192100e908070020182100e7080700d3
:100c60005423ef008000eb00100020008eff0700ef
:100c70008000eb00200020008bff0700b025210042
:100c80001040780070406000030032002000200017
:100c9000a0ff070006003700b025210001c2b30005
:100ca00010c06000020032002000200087ff070013
:100cb000200020006aff0700200020009eff0700a0
:100cc000100020009cff07001000200064ff0700b8
:100cd000100020008fff0700b02521001034a00075
:100ce000000006000000eb0030928800509288005f
:100cf0001000200075ff070067a3a8001000200067
:100d00007bff07006783a8000000000000000000d0
:100d100000000000b02521001034a10000000600f2
:100d20008807070090828000e40f500029003200fd
:100d300006003e00e20f50000e00320014003e009c
:100d4000e10f50004f003a0006003700e60f500058
:100d50002d00320024003900e70f500049003a000e
:100d6000310037006c0707002000200090828800c7
:100d7000440037005410e20042003a006024210091
:100d80000008eb0030002000908288003d00370012
:100d90005410e200030032002000200090828800fe
:100da00038003700409280000000e000350032003b
:100db000b025210010407800624060003100320010
:100dc0009fff070040002000908288003630ef002f
:100dd0002c003700b08180008000e800b1818800dd
:100de0004b060700270037005410e20004003200d1
:100df000bcff0700200020009082880021003700ff
:100e0000130607001f0037005410e20004003200f0
:100e1000b4ff0700200020009082880019003700ee
:100e20001d060700170037005410e20004003200ce
:100e3000acff0700200020009082880011003700de
:100e4000409280000000e00004003200b025210044
:100e5000104078006240600004003a00300020003a
:100e6000908288009fff07000600370031928000c3
:100e700040928000808f500002003200600020000d
:100e80009082880000000600881f78000180200002
:100e9000810f500005003600421c8000c500dd00b7
:100ea0000209b8000304780001003700688180005f
:100eb00071818000888f50000200310078818000ad
:100ec0000400370061818000888f500001003600e7
:100ed00068818000f17f2000810f500004003e00f7
:100ee000911a80004500dd000100b80001003700c4
:100ef0008181800080818000810f500002003100dc
:100f0000818180000400370090818000810f5000b3
:100f100001003600918180000100d100a01a8800f4
:100f200010002000e0fe070088007800200020006c
:100f3000ddfe07004f04780000000600881f7800df
:100f4000d08d8000c9080700b025210001c2b30080
:100f500010c060001800320090828000e40f500042
:100f60001500360002928000418d2000810f510053
:100f700006003600e70f500004003a002000200071
:100f8000e4fe0700a02521001064a000019280006b
:100f9000f0862000808f500007003e009082800085
:100fa000e70f500004003a0020002000c7fe0700b1
:100fb000a02521001064a100a08180008000e8002d
:100fc000a1818800e30f500016003600801b21002d
:100fd000319280000108780010017800e80140009b
:100fe000c1232100601a210050070700d091800022
:100ff000000040000258220000015100b1aa2a005e
:101000000111b800a02421000308d100d18d800077
:10101000908f50000200360050928000d08d8800e2
:101020003430ef00008e80003010e3000300310008
:1010300081818000e18d88000e003700008e8000e5
:101040003210e3000900360090828000e40f500067
:1010500003003600c01b21000008eb00050037002c
:1010600090818000e08d880002003700018e8000b2
:10107000e18d8800b025210001c2b30010c06000de
:1010800007003200c81b21009800d100100020008a
:10109000b2fe0700980078001000200082fe0700d2
:1010a000008e80003010e30018003100028e8000b6
:1010b00081818000e01b21000108510010007800b0
:1010c0002e10e3000300310070818000f08d880055
:1010d00006003700f08d80002c10e300030036007e
:1010e00061818000f18d880000003700b02521006b
:1010f00001c2b30010c060000e003200f18d80000c
:101100002000200068fe07000a003700b0252100fb
:1011100001c2b30010c0600006003200e01b2100d5
:101120006181800001087800900078002000200094
:101130005dfe0700b025210010407800704060007f
:1011400002003200309280004fff07004f04780009
:10115000000006000000060050c5b3004122210037
:10116000914f10000c003a00a08380000038a300cb
:1011700009003a0051c5b30050072100014878002a
:1011800011c0b3000008b000014878001008b10099
:101190001030a0000a003700500f21009040780066
:1011a0000181fb00b3808000f4f72f0000024200b1
:1011b00002014200f3f99700134198000148e8004a
:1011c000500f210041c0b30090cf10000600360040
:1011d000d007b10010407800800f210011f82f00d7
:1011e0008080400011487800a5808000b080800099
:1011f0008500500042222100e2c07800edcf50006f
:1012000016003a00510f2100114178000281fb00c5
:10121000e38040009180fb00e7804000810f510097
:101220000e003400a18380000138a3000b003200bf
:10123000410721001100a0000181e800124278005e
:101240004822dd000201e8009281fb00f207b000b5
:10125000030972001130a100b5808800000006006b
:10126000b1808000a0808000808f5000030031009a
:10127000ec804000808050000100370080805000ea
:1012800000c0eb00f20f2000828f500001003e00f2
:101290000140780000000600c1808000d0808000fe
:1012a000808f5000030036008100e90080805000ec
:1012b00002003700e88040008080500000c0eb0052
:1012c000f20f2000828f500001003e0001407800a4
:1012d000000006000000e00003003a00a08a2000a1
:1012e00080808800010037008080880000000600b0
:1012f0000000e00003003a00c08a200090808800cf
:101300000100370090808800000006002188a900b5
:101310002168a90000082000c01188000038b00032
:10132000d01188003c22ef0020022000f01188003c
:10133000101b2000001288004222ef004c22ef0018
:101340004e22ef005022ef005222ef005422ef0015
:101350005622ef005822ef005a22ef005c22ef00e5
:1013600000232100c0808800d08088004022210016
:10137000a0808800b08088001c70ef00a08a200048
:10138000d4ff0700c08a2000d9ff07002168a80009
:1013900039e2a80038a2a8003882a80000000600a0
:1013a000a08080001610e300feff3200b0407800fd
:1013b000a080880002232100820f500002003a0022
:1013c0006c005100a08088000140780000000600f9
:1013d000b08080001490b60000f0a7000000ea0082
:1013e0000000ea004f00de0000000600c18080001f
:1013f000d0808000808f5000030036008100e9001b
:101400000080500002003700e8804000008050005b
:1014100000f0a7000000ea000000ea004f00de0034
:1014200000000600881f780000447800efff0700e6
:101430000004e000fdff3200d080800008587800f2
:10144000d080880091232100810f500002003a00d3
:1014500069805000d08088002188a8004f0478005f
:10146000000006000040eb00d1808000c2808000b8
:10147000810f510004003a00000820003c02b60031
:101480000000ea004f00de0000000600889fbe005a
:101490008a1f7800800478000104780070ff07003c
:1014a0000085fb00880f5500010036000805780014
:1014b0000a00e000060032000004eb00b8ff07005d
:1014c000805c78000804e8008a0f5400fbff3900b4
:1014d0000a0078004f0578004f04be0000000600a7
:1014e000889fbe008a1f780080047800010478007d
:1014f00069ff07000085fb00880f550001003600da
:10150000080578000a00e000060032000004eb0045
:1015100039407800c3ff07000804e8008a0f540030
:10152000fbff39000a0078004f0578004f04be0029
:1015300000000600881f780049ff0700004478007b
:1015400055ff070080407800400020000804e000bc
:101550000400320010002000ec4f54000100320063
:10156000200020000104e00003003200eccf500016
:1015700004003a00020037000030a00001003700ec
:101580000040a0004f047800000006001410b400d2
:1015900001232100810f5000030036006c00500031
:1015a000810f5000fdff3e00104078000000060053
:1015b0002bff07000080fb000000e9004f00de0069
:1015c0000000060034ff07000080fb000000e90077
:1015d0004f00de0000000600f0118000e2118000e4
:1015e0008000eb00c000dd00000020008001eb0067
:1015f00002007000838070000000060026ff0700d4
:10160000804078000000eb000104e0000900320097
:10161000d08080001810e30004003600c1808000f4
:101620008100e90000805000020037001810b5006a
:10163000680040000000060009ff070080407800b5
:101640000000eb000104e0000a003200a0808000ee
:101650001610e30004003100b18080000000e900b2
:101660000100500003003700b18080006b00400093
:10167000010050000000060039e2a80038a2a800ce
:101680003882a8000000060039e2a90038a2a900ab
:101690003882a90000000600881f7800c0172100ca
:1016a00090407800904078008180fb000000e800c6
:1016b0001080fb0065004000808f50001400310056
:1016c000e0172100900078000081e9001281fb0002
:1016d0008208b00063ef2f008081410063417900f0
:1016e0000281fb000108690081c0b30013002a00d9
:1016f0001008a300030032001001d10003086900a4
:10170000010037001008d1008140e900f8ff3a00dd
:10171000c0172100904078008180fb000000e800a5
:101720001080fb0065004000808f50000d003a00e3
:10173000d21721009281fb00e58141008200e80080
:10174000110278004822de00e0f72f00010040007f
:1017500004f079001281fb006601410091007800dd
:1017600001707900c81721001880fb008008b000c4
:1017700081ef2f00888040006140780029ff07003a
:10178000184ce800984078008180fb000800e800d1
:101790001080fb0067004000808f5000060036007c
:1017a000080078000048eb000080e8000008eb002b
:1017b000a010b1001020a0004f0478000000060027
:1017c00001052100914078008181fb004802de0084
:1017d000c20f210004f179008140e8008181fb0003
:1017e00000f179008140e800014178000005210006
:1017f0000248780000000600a08380000028a300b3
:101800003800320050c0b30050f0b700d0918000d3
:10181000ebff0700e0918000e9ff070000928000e5
:10182000e7ff0700f0918000e5ff070010928000bd
:10183000e3ff070020928000e1ff07009082800014
:10184000dfff0700a0828000ddff07004e50e200ae
:101850000b003200a22521009281fb000200e8006b
:101860009080fb00c808dd008180710001e0a000cd
:1018700001497800c808de00014878000a003700f6
:10188000a22521009281fb000200e8009080fb006d
:10189000c808dd008180710001e0a10001497800e5
:1018a000c808de0001487800a02521009080fb00d8
:1018b0000000e8001080fb004800dd0000807000a0
:1018c000bfff0700e08d8000bdff0700f08d8000a6
:1018d000bbff0700008e8000b9ff07004007210012
:1018e0001020a1000000060051c5b300c00f210068
:1018f000014878008040eb000000e80001487800d3
:1019000012c0b3000000e80002487800f007b00001
:1019100082c1b3000248780022f82f000001410084
:10192000014978008200e800904878001080fb00b0
:1019300065004000e50f50000c00360050c0b300b9
:1019400064825000d3072000818141008080fb0029
:1019500000f278000040e8000081fb009380fb006b
:10196000e5804000810f5100f8ff39000001eb00d5
:10197000f28b8800d11721009181fb00e5814100a5
:10198000f0f72f000100400002f079009181fb0088
:10199000e681410002f079009180fb00e780400081
:1019a000d2c0b30002f07800000006000018210049
:1019b0000008eb008008b1001080fb000002eb0083
:1019c0000018210047ef2f0080834300860020008d
:1019d00013002a0085f72f008082420090007800d3
:1019e00004814300124190000281fb00010869005c
:1019f000860078001008a300030032001001d10017
:101a000003086900010037001008d1008100e900d7
:101a1000f8ff3a000402e8009580fb00e5804000f2
:101a2000848f5000edff3e00810f21001181fb00eb
:101a3000c0f72f0001004000020140006241900009
:101a40009180fb000100400070409000018c8000fc
:101a50004811dd000080fb0002007000808f500004
:101a60001c003a00b1878000f00e2400808f5000e7
:101a700016003a00800f210041c0b30090cf100043
:101a800012003a00e007b100904078000001e80041
:101a9000124178001080fb000078a300060032009d
:101aa000f107b200c808dd000280fb0000804000a2
:101ab000e40207004e70ef00a00721001004e000d0
:101ac0000200350010c0b3004ef0b700600f2100d7
:101ad0000008eb0000000600000006000000060001
:101ae00000000600000006000000060000000600de
:101af0000000060000000600000ca80001102000f5
:101b00000260800002806000fdff32000a0ba80026
:101b100000000600002ca8000120200002608000c8
:101b200002806000fdff32000a2ba80000000600c2
:101b300000eca80001002800026080000280600024
:101b4000fdff32000aeba80000000600708088004c
:101b5000000006000b48ab000500320070808000da
:101b60000000e00001003200000001000b48a90065
:101b70000000060060808800000006000c28ab0012
:101b800006003200c0608000618080000100e0003b
:101b900001003200010001000c28a900000006002d
:101ba00050808800000006000ca8ab000600320040
:101bb00000618000518080000100e00001003200df
:101bc000010001000ca8a900000006004080880068
:101bd000000006000d48ab00060032005061800096
:101be000418080000100e00001003200010001009e
:101bf0000d48a900000006003080880000000600a3
:101c00000d88ab00060032007061800031808000da
:101c10000100e00001003200010001000d88a90070
:101c20000000060020808800000006000dc8ab0000
:101c30000600320090618000218080000100e000f9
:101c400001003200010001000dc8a90000000600db
:101c50001080880000000600008088000000060058
:101c6000889fbe00002bef0000062000105888005f
:101c7000042bef00062bef00f900200049588800e4
:101c80000a2bef000c2bef000e2bef00102bef00b8
:101c9000122bef00142bef00162bef00304428001e
:101ca00000598800a000200010598800382bef0050
:101cb000402bef00482bef00502bef003a2bef00aa
:101cc000422bef004a2bef00522bef003c2bef0092
:101cd000442bef004c2bef00542bef003e2bef007a
:101ce000462bef004e2bef00562bef000840200054
:101cf000585b8800785b8800985b8800b85b880038
:101d0000a02bef00a42bef00a82bef00ac2bef00d3
:101d1000d02bef00d22bef00d42bef00d82bef000d
:101d200000302000b05e8800d05e8800f02bef000d
:101d3000f22bef00022cef00c0d6200083ff07003b
:101d4000e0d620008bff070000d7200094ff07009b
:101d500020d720009dff070040d72000a6ff0700e6
:101d600060d72000afff070080d72000b8ff070032
:101d7000a0d72000b8ff07000b68a9002b68a800b7
:101d8000b8290a00020c000001eba80068ff070058
:101d900059ff07005fff070040402000005c8800fb
:101da000822bef00842bef0040002000305c880085
:101db000882bef00505c88008c2bef00785c88004b
:101dc000885c8800922bef00982bef004f04be0038
:101dd000000006000b88ab00060032007060800037
:101de000018080000100e0000100320001000100dc
:101df0000b88a9000000060000000600e24f50001a
:101e000015003e008080fb000225210062c17800a1
:101e1000e14f51001000320013c0b3000225210031
:101e200003f17800834f50000600320003003900b0
:101e3000e24f500007003a00040037005beea800b4
:101e40000500370022aea8000300370022cea8000c
:101e5000010037000000000000000600e24f5000c3
:101e600015003e008080fb000225210062c1780041
:101e70000204e000100032008041eb000225210046
:101e800003f17800e14f50000600320003003900f2
:101e9000e24f500007003a00040037005beea90053
:101ea0000500370022aea9000300370022cea900aa
:101eb000010037000000000000000600e14f500064
:101ec0000f00320003003900e24f500020003a00ba
:101ed00015003700d0728000ff800a00000000006b
:101ee0000004a2000080fb004f00dd00d1728000e2
:101ef00001f0a10081007000d17288001500370048
:101f000055a00a00220e00000004a200610060003b
:101f10004500dd00117180000150a10081007000ba
:101f2000117188000b00370066a00a00220e000025
:101f30000004a200610060004600dd001171800015
:101f40000160a1008100700011718800010037005c
:101f50000000000000000600e24f500004003e00b8
:101f60000080fb0022c0b3000125210082707800b0
:101f700000000600e24f500004003e000080fb001d
:101f800032c0b300012521008270780000000600f5
:101f9000e24f500004003e000080fb0042c0b3004e
:101fa000012521008270780000000600889fbe0095
:101fb0008a1f780011c0b30006252100a7c0b30016
:101fc000342521008044eb0058c0b3002ac0b30080
:101fd000010037008140e8008141e9000380fb00f7
:101fe00066417800e14f51003300360087427800a7
:101ff000e34f51000400320088427800e44f510062
:1020000001003a008a427800644178000241e80009
:102010000272780082cf520027003e0009727800d9
:10202000e1cf51000f00320003003900e2cf510030
:1020300020003a0015003700d0728000ff800a00af
:10204000000000000004a2000080fb004f00dd0043
:10205000d272800002f0a10002017000d2728800ea
:10206000dcff370055a00a00220e00000004a20089
:10207000610060004500dd00127180000250a10087
:102080000201700012718800d2ff370066a00a00ba
:10209000220e00000004a200610060004600dd0086
:1020a000117180000160a100810070001171880031
:1020b0000300370000000000e2cf5000c5ff3600eb
:1020c0004f0578004f04be000000060001087800ac
:1020d00012009800230098003400980045009800f2
:1020e0008000eb0061009800614898000000060045
:1020f000210098003200980043009800000006007c
:10210000010878001200980000000600881f78007f
:1021100000047800988f100012003c00684890007e
:102120000004e0000f003a00580090000000e800b2
:1021300050049800a8009000810f50001e00360047
:102140000200e000020032000800780002000100f6
:1021500010c0b300604c98000000eb0050049800e1
:102160001500370018009000808f500010003d00cf
:1021700068489000e14f50000d003a005800900070
:102180000000e800500498008000eb003801900047
:10219000c8019000820f5000838f5800060036005f
:1021a0000000eb0050049800604c980002003700db
:1021b0000000eb0050049800684890000080fb008d
:1021c0000000ea004f00de004f0478000000060027
:1021d000881f780000047800988f100012003500e6
:1021e000684890000004e0000f003a00580090009a
:1021f0000000e80050049800a8009000810f5000f3
:102200001e0036000200e0000200320008007800e4
:102210000200010010c0b300604c98000000eb0009
:10222000500498001500370018009000808f50006f
:102230001000340068489000e14f50000d003a0053
:10224000580090000000e800500498008000eb0067
:1022500038019000c8019000820f5000838f580011
:10226000060036000000eb0050049800604c980017
:10227000020037000000eb0050049800684890000e
:102280000080fb000000ea004f00de004f047800f1
:1022900000000600881f7800000478000104e000b8
:1022a00012003200684890000004e0001f003a006d
:1022b000580090000000e80050049800a80090002a
:1022c000810f50001b0036000200e00002003200c7
:1022d000080078000200010010c0b300604c9800b4
:1022e0000000eb005004980012003700684890008e
:1022f000e14f50000d003a00580090000000e80047
:10230000500498008000eb0038019000c801900054
:10231000820f5000838f5800060036000000eb004b
:1023200050049800604c9800020037000000eb0059
:1023300050049800684890000080fb000000ea000c
:102340004f00de004f04780000000600300020003f
:10235000001888000223ef000423ef000623ef009b
:102360000823ef0000012000501888000c23ef0024
:102370000e23ef001023ef001223ef001423ef00d1
:102380001623ef001823ef001a23ef001c23ef00a1
:102390001e23ef002023ef002223ef002423ef0071
:1023a0002623ef002823ef0000102000601988008a
:1023b0000000e800101b88002e23ef006423ef00cc
:1023c000000023008019880000002700301b8800cf
:1023d000c000200090198800401b88008010200059
:1023e000a019880080002000501b88003623ef00d1
:1023f0006c23ef00d0012800c0198800701b8800f2
:1024000000402000d0198800801b88003c23ef008a
:102410007223ef003e23ef007423ef004023ef0010
:102420007623ef004223ef007823ef004423ef00f0
:102430007a23ef004623ef007c23ef004823ef00d0
:102440007e23ef004a23ef008023ef004c23ef00b0
:102450008223ef004e23ef008423ef005023ef0090
:102460008623ef00d0c92200901a8800401c880003
:102470005423ef008a23ef005623ef008c23ef0054
:102480005823ef008e23ef00800c2000d01a880024
:10249000801c8800e01a8800901c8800f303070065
:1024a0000004e000fdff3200800820005019880081
:1024b000001b880000000600000006000868ab0052
:1024c00002003200fcff07000868a90000000600b7
:1024d000000006000888ab0002003200fcff070085
:1024e0000888a90000000600000006001528ab00bf
:1024f00002003200fcff07001528a90000000600ba
:10250000000006001548ab0002003200fcff070087
:102510001548a90000000600000006001568ab0081
:1025200002003200fcff07001568a9000000060049
:10253000000006001588ab0002003200fcff070017
:102540001588a900000006000000060015a8ab00d1
:1025500002003200fcff070015a8a90000000600d9
:102560000000060015c8ab0002003200fcff0700a7
:1025700015c8a90000000600e10f5000030032005a
:10258000e20f500004003a000200370031a3a80017
:102590000100370067a3a80000000600b025210055
:1025a000104078006240600005003a00b02521002c
:1025b0001014a00010417800e2406100fcff3200de
:1025c00000000600b0252100104078006240600045
:1025d00005003200b02521001014a1001041780040
:1025e000e2406100fcff3a0000000600b025210037
:1025f000020037001044a0001054a10010417800e0
:10260000f0406100fbff320002c2b3009040610065
:10261000f8ff3a0000000600b02521000200370054
:102620001044a1001054a00010417800f040610057
:10263000fbff3a0002c2b30090406100f8ff320095
:10264000000006004092880000000600000006001e
:102650005192800060928000808f50000c00310009
:1026600051928000609280008180e800808f50004d
:1026700003003100a02421001088e8000400370086
:102680006092800050928800600020009082880054
:102690005630ef000000060031928000409280002a
:1026a000808f50000d0031003192800040928000f8
:1026b0008180e800808f50000300310060242100f9
:1026c0001088e800110037004092800030928800a6
:1026d00070002000908288000c003700319280004a
:1026e000409280008180e800808f50000300360017
:1026f000602421001088e900040037004092800027
:10270000309288007000200090828800000006004f
:1027100031062000810f50001b003600b02521003b
:1027200001c2b30010c0600002003200200020008f
:1027300091ff0700600020009082880080a22000a6
:1027400060928800b025210001c2b30010c0600073
:1027500003003200401f2000309288000200370042
:10276000602421000008eb00d091800000004000b0
:102770000258220000015100b1aa2a000111b8003c
:10278000a12421008308d10000000600881f7800e2
:10279000201821006104210001087800280621008a
:1027a000288c880041fe2600318c8800e1fd26003f
:1027b000418c88008000eb00518c880012162400a8
:1027c000728c88000081eb00628c8800818c88000c
:1027d000a1932500918c88004030ef00070207008c
:1027e000901726003082880010bd210040828800aa
:1027f000c0ff2700000c7800e0af20002083880095
:1028000020b02800308388004f04780000000600c4
:10281000881f780040192100a104210001087800d8
:1028200088062100b88c8800e1fe2600c18c880053
:1028300081fe2600d18c88008000eb00e18c8800ae
:10284000a2252500028d8800d2ff2f00f28c88007f
:10285000118d8800a1932500218d88004230ef0062
:10286000e601070080352100508288005058200082
:1028700060828800c0ff2700000c7800a02b200099
:1028800050838800e02b2800608388004f04780084
:1028900000000600889fbe00601a2100e9062100a2
:1028a0000908780088032100488d8800a1ff2600d0
:1028b000518d880021ff2600618d88008000eb008b
:1028c000718d8800c2262400928d8800b2ff2f00ef
:1028d000828d8800a18d8800a1932500b18d88008c
:1028e0004430ef004701070000cf2f00800c780034
:1028f0003074200080838800203820009083880076
:10290000c0ff2700000c7800f0ac2d0010049800e8
:10291000209e280020049800f0f022003004980047
:082920004f04be000000060098
:020000040000fa
:102928004e100000020000008200000001000000bc
:10293800561200000400000080000000741000001f
:102948000e0100008000000050100000020000008e
:10295800800000005a120000020000008000000001
:102968005210000002000000820000000100000078
:102978002c1000000c00000080000000c4110000b2
:102988004000000080000000541000000200000019
:10299800800000008211000042000000800000005a
:1029a800de6f0000220000008000000046100000da
:1029b8000400000080000000621000001200000007
:1029c80080000000401000000600000080000000a9
:1029d8004a100000040000008000000038100000c9
:1029e8000800000080000000461200000a000000f5
:1029f8008000000056100000020000008000000067
:102a08003a1200000c00000080000000581000007e
:102a180002000000800000005012000006000000c4
:102a2800800000000010000010000000800000007e
:102a38005c12000002000000800000005a10000034
:102a480002000000800000000412000020000000c6
:102a5800800000005c1000000200000082000000fe
:102a6800ffff000024120000160000008000000094
:102a7800101000000e000000800000005e10000032
:102a880002000000800000001e1000000e00000080
:102a980080000000601000000200000080000000bc
:042aa800000000002a
:020000040000fa
:102aac006022b8008001eb00b2482000e143200016
:102abc00401c210082fd07006022b8008001eb0061
:102acc00d2a4200081ae2000401d21007cfd070017
:102adc000453270005002000e30120007230200081
:102aec0051d52000401e210075fd0700045327001e
:102afc0005002000e30120007230200051d5200099
:102b0c00401f21006efd0700000006000253270045
:102b1c0003002000e1012000401c210071fd070092
:102b2c000253270003002000e1012000401d21007a
:102b3c006cfd070000000600881f7800a823210008
:102b4c00980078000001eb00401c21009dfd07005f
:102b5c006100600000004000a18280000110a10013
:102b6c0081007000a1828800980078000001eb00c1
:102b7c00401d210062fd070000200a0054100000d7
:102b8c00e19180000001eb00401e21005cfd07007c
:102b9c00610060004300dd00a18280000130a100d3
:102bac0081007000a1828800eea10a002e030000b3
:102bbc000001eb00401f2100b3fd0700e1006000a5
:102bcc00c408dd00a08280000040a10000807000dd
:102bdc00a08288000048a300080032002fc3ab007d
:102bec0002003a0065c3ab000400320038e3a800d1
:102bfc002fc3a9006ee3a80065c3a9004f04780099
:102c0c0000000600a1828000010878000000060088
:102c1c004f00de00000006000100240001006000ef
:102c2c000000ea004f00de000000060099800a0058
:102c3c00000000000000060077800a000000000081
:102c4c000000060066800a0000000000000006007c
:102c5c0044800a0000000000000006000080ea002a
:102c6c00800fb600007c880000000600007c80000d
:102c7c0000000600881f7800fcff070000047800a5
:102c8c0008007800e2ff07000004e00002003200b8
:102c9c0000002800f1ff070008007800deff0700a5
:102cac000004e0000200320000002400ebff0700eb
:102cbc0008007800ddff07000004e000020032008d
:102ccc0000202000e5ff070008007800daff07006d
:102cdc000004e0000200320000082000dfff0700c3
:102cec0008007800d7ff07000004e0000200320063
:102cfc0000042000d9ff070008007800d4ff07006b
:102d0c000004e0000200320000012000d3ff0700a5
:102d1c004f04780000000600802fef000000060032
:102d2c00841f7800851f7800881f78008a1f780020
:102d3c004400f800040a20002402880030059000aa
:102d4c0040049000aa029000350598009a02900069
:102d5c00250598008a0290001505980091025100f3
:102d6c00882add00050d7800100490004604c3008d
:102d7c004604c0004604c0004604c0001201c00056
:102d8c0000049000200590004604c7004604c000d3
:102d9c000204c0001201c0000400cd00e00290004b
:102dac001301c000d00290000500c8000400cd0043
:102dbc00faba9700050d7800eaba970075bd9f0026
:102dcc0064bd9f00f00290001520e600050278001b
:102ddc00800a900015a0e6000502780084097800ae
:102dec004400f9004f0578004f047800cf027800ba
:102dfc004f02780000000600801f78002000900031
:102e0c000018eb000018eb000008eb004f007800f6
:102e1c00801f7800300090000018eb000018eb00c9
:102e2c000018eb000008eb004f00780000000600d3
:102e3c000040eb0045fc070000000600be00070048
:102e4c00e14f50000c003a00b025210010407800f2
:102e5c006240600004003200d7fd070020c0b300c0
:102e6c00fbfb07000d003700c9fd070020c0b300b5
:102e7c00dffb070009003700e24f500007003a0063
:102e8c00b025210010407800704060000200320034
:102e9c00defd070001003700d1fd07000000060031
:102eac000200fa00b025210010407800624060005a
:102ebc0002003a0020c0b30024fc07000f80e90098
:102ecc0050ff07007fb897005e10ab0002003a007d
:102edc000000e0000300320010c0b300c4fb070088
:102eec0009003700b02521001040780070406000c8
:102efc000300320010c0b30014fc070002003700be
:102f0c0010c0b300d2fb07000080fa0000000600de
:102f1c00caff07004e50e2000200320010928000ff
:102f2c00c5fd0700deff070000000600841f7800c7
:102f3c00851f7800881f78008a1f78004400f800ed
:102f4c00040a200024028800300590004004900000
:102f5c009a029000250598008a02900015059800a9
:102f6c0091025100882add00050d780010049000b4
:102f7c004604c3004604c0000204c0001201c00095
:102f8c0000049000200590004604c7000204c00015
:102f9c001201c0000400cd00e00290001301c0003b
:102fac00d00290000500c8000400cd00faba9700ca
:102fbc00050d780074bd9f00f00290001520e6000e
:102fcc0005027800800a900015a0e6000502780042
:102fdc00840978004400f9004f0578004f0478000c
:102fec00cf0278004f0278000080fe00000006003f
:102ffc00801f7800200090000018eb000008eb0008
:10300c004f007800801f7800300090000018eb0013
:10301c000018eb000008eb004f00780000000600e1
:10302c0077a00a00a80c00000000060081eca800a4
:10303c000000060081eca90000000600fdff07005f
:10304c0000082000006488005005200020648800df
:10305c00a008200030648800aa2cef003010280053
:10306c0040658800b22cef00b02cef00b42cef00c0
:10307c00ac2cef0070f2200070658800ebff0700ad
:10308c00000006006740600053200a00a80c0000f6
:10309c00000006007065880000000600606588006e
:1030ac0000000600a92ca80000000600a92ca9000d
:1030bc00000006006f40600030200a00b00c0000d9
:1030cc00000006006f406000b8200a00b00c000041
:1030dc00000006006f40600074200a00b00c000075
:1030ec00000006006f406000fc200a00b00c0000dd
:1030fc0000000600000006000808e20002003d0087
:10310c00fcff070009e8a900000006000040eb00e6
:10311c0061252100804878008100e8008048780013
:10312c008100e8008048780011c0b3009025210090
:10313c00014878000000060081252100114078002c
:10314c008048eb0000000600dda10a003c0e0000e8
:10315c009025210090cf500011003a0063005000e0
:10316c000048eb000104e00021003a0050c9b30014
:10317c0071252100914f10001d003e0001007800c8
:10318c001048e80061c9b30090cf100018003a0055
:10319c0021c0b3000000e80001487800140037009b
:1031ac00602521001048e80022c0b300904f1100a8
:1031bc000f003a00630040000148780063005000a3
:1031cc000048eb000104e0000700320050c9b300d6
:1031dc0071252100914f100003003e0011c0b30077
:1031ec008025210001487800702521000048eb0063
:1031fc000000060077a00a00880c00000000060002
:10320c0081eca8000000060081eca900000006007b
:10321c00fdff0700802cef00500520002064880083
:10322c00a0082000306488008a2cef0000202800c1
:10323c0040648800922cef00902cef00942cef004f
:10324c008c2cef008e2cef00edff07000000060029
:10325c006740600053200a00880c00000000060044
:10326c00706488000000060060648800000006009e
:10327c00892ca80000000600892ca900000006007b
:10328c006f40600030200a00900c00000000060027
:10329c006f406000b8200a00900c0000000006008f
:1032ac006f40600074200a00900c000000000600c3
:1032bc006f406000fc200a00900c0000000006002b
:1032cc000000060009a8ab0002003200fcff07005a
:1032dc0009a8a900000006000000060040088800ac
:1032ec00c02521000048eb000000060040088000cb
:1032fc000000060020088800c02521000048eb00d3
:10330c000000060020088000000006002028a9000c
:10331c00d08288002028a800000006000421ef00bd
:10332c00f031200040088800203028000008880078
:10333c005a10e20002003a0040aa2100f3ff0700f5
:10334c000028a9002028a800c02521000048eb0077
:10335c0000000600c02521000048eb002028a80032
:10336c0001e1a8000000060001e1a9002028a90045
:10337c0000000600c0252100104078000004e00089
:10338c0002003200c12521008048eb00000006003d
:10339c00d02521001080fb0000000600d025210064
:1033ac000048eb000000060010002300307c880071
:1033bc0060092000407c88008c2fef001003200057
:1033cc00507c880010102800707c8800d0072000ea
:1033dc00807c880010022000907c88009a2fef00df
:1033ec00b82fef00ba2fef00be2fef00002def002b
:1033fc00a02fef00a42fef00a62fef00a82fef00b7
:10340c00aa2fef00ae2fef00b02fef00b22fef007e
:10341c0010002000a20920008107200053f8200092
:10342c008149780082497800804978007205200033
:10343c006104200043f8200081497800824978001b
:10344c0080497800840fab00feff3a000102200097
:10345c00227c800002806000fdff3200000006002c
:10346c00eea00a008e0f000000000600062eef00f2
:10347c00222eef003e2eef005a2eef00710120009d
:10348c0011708800f0f92000f07088003aaeef005f
:10349c0070f92700b07288000c2eef00282eef0078
:1034ac00442eef00602eef000a2eef00262eef00c8
:1034bc0000802000107288005e2eef00082eef00b6
:1034cc00242eef00402eef005c2eef0001708800e0
:1034dc0071382000e1708800f10c2000c171880067
:1034ec0001c02200a17288008000eb005205200070
:1034fc00b2468800a20a2000b24688000168880003
:10350c0013002000d8230a00a20d000043c4b3000e
:10351c0082d220000349780051052000b146880072
:10352c00a10a2000b146880000688800000006004f
:10353c001e30ef002030ef00000006001e30ec00c3
:10354c000028a9002b0007002a70ec002ad0bf002d
:10355c00e94f500002003600280007002a70ef00e7
:10356c0000000600008180001e10e3001b003200ea
:10357c002030ec00220007002830ec004081800055
:10358c00e90f5000160036002830ef001d00070030
:10359c002630ec0030818000e90f5000100036001e
:1035ac002630ef00250007002430ec00208180003d
:1035bc00e90f50000a0036002430ef00210007000c
:1035cc002230ec0010818000e90f5000040036001e
:1035dc002230ef001e000700010037002200070018
:1035ec00000006001e30ef002030ef00ddff07006a
:1035fc00feff3700c7f507000000060000000600bc
:10360c000000060079f807006150ec0061f0b7008b
:10361c00e24f5000020036001cf807006170ef000a
:10362c00a08380000008a3000300320040072100a3
:10363c001000a100daf8070000000600c2fe070027
:10364c000000060032fe070055fa070000000600d5
:10365c006050ec0060f0b700e44f50000100360001
:10366c006070ef000000060055a00a005a0e000022
:10367c000004a200610060004500dd00d1728000f2
:10368c000150a10081007000d1728800000006007a
:10369c00210f200022028000828060008080700058
:1036ac002102880000000600c3e8a800000000000a
:1036bc0000000000000006006cff07003aff070046
:1036cc000a000700d2fe07005cfe07000cf707009b
:1036dc0060f907001afb070010ff0700f2ff070054
:1036ec0000022000eaff0700000006001000200086
:1036fc0064200a009e08000020200a0046080000f2
:10370c0064200a0058080000ec200a00440800005d
:10371c0040002000ec200a006c0800001000200083
:10372c0064200a004008000000000600e2ff0700c9
:10373c006af8070075fe0700acf90700bcfd07002e
:10374c000a0007000bf50700a6ff0700ffff370074
:10375c00402021008007780078004000000188009c
:10376c0000000600e0828800ffff370070ff0700b2
:04377c000000060043
:020000040000fa
:020000040005f5
:047e0000ffff000080
:020000040000fa
:020000040005f5
:047e2000ffffff0061
:020000040000fa
:020000040005f5
:047e3000f8ffff0058
:020000040000fa
:020000040005f5
:047e38007bffff00cd
:020000040000fa
:020000040005f5
:047e4000eb03ff0051
:020000040000fa
:020000040005f5
:047e4800ffffff0039
:020000040000fa
:020000040005f5
:047e5000deffff0052
:020000040000fa
:020000040005f5
:047e58000000ff0027
:020000040000fa
:020000040005f5
:047e60000000ff001f
:020000040000fa
:020000040005f5
:047e68000000ff0017
:020000040000fa
:020000040005f5
:047e70000000ff000f
:020000040000fa
:020000040005f5
:047e7800ffffff0009
:020000040000fa
:020000040005f5
:047e8000fffcff0004
:020000040000fa
:020000040005f5
:047e8800ffffff00f9
:020000040000fa
:020000040005f5
:047ff800ffffff0088
:020000040000fa
:020000040100f9
:04300000ffffff00cf
:00000001FF
